{
  "contractName": "CivilDiscourse",
  "abi": [
    {
      "constant": true,
      "inputs": [
        {
          "name": "",
          "type": "uint256"
        }
      ],
      "name": "statements",
      "outputs": [
        {
          "name": "text",
          "type": "string"
        },
        {
          "name": "owner",
          "type": "address"
        }
      ],
      "payable": false,
      "stateMutability": "view",
      "type": "function"
    },
    {
      "anonymous": false,
      "inputs": [
        {
          "indexed": false,
          "name": "by",
          "type": "address"
        },
        {
          "indexed": false,
          "name": "text",
          "type": "string"
        }
      ],
      "name": "StatementAdded",
      "type": "event"
    },
    {
      "constant": false,
      "inputs": [
        {
          "name": "text",
          "type": "string"
        }
      ],
      "name": "AddStatement",
      "outputs": [],
      "payable": false,
      "stateMutability": "nonpayable",
      "type": "function"
    }
  ],
  "bytecode": "0x6060604052341561000f57600080fd5b61051b8061001e6000396000f30060606040526004361061004c576000357c0100000000000000000000000000000000000000000000000000000000900463ffffffff1680633d7f3fef14610051578063ac3f58a8146100ae575b600080fd5b341561005c57600080fd5b6100ac600480803590602001908201803590602001908080601f0160208091040260200160405190810160405280939291908181526020018383808284378201915050505050509190505061019a565b005b34156100b957600080fd5b6100cf6004808035906020019091905050610328565b60405180806020018373ffffffffffffffffffffffffffffffffffffffff1673ffffffffffffffffffffffffffffffffffffffff16815260200182810382528481815460018160011615610100020316600290048152602001915080546001816001161561010002031660029004801561018a5780601f1061015f5761010080835404028352916020019161018a565b820191906000526020600020905b81548152906001019060200180831161016d57829003601f168201915b5050935050505060405180910390f35b600080548060010182816101ae919061037a565b9160005260206000209060020201600060408051908101604052808581526020013373ffffffffffffffffffffffffffffffffffffffff168152509091909150600082015181600001908051906020019061020a9291906103ac565b5060208201518160010160006101000a81548173ffffffffffffffffffffffffffffffffffffffff021916908373ffffffffffffffffffffffffffffffffffffffff1602179055505050507f2cf6827452e40312742663eb6721abed4bfd170aaf5804d833f19884d78efef83382604051808373ffffffffffffffffffffffffffffffffffffffff1673ffffffffffffffffffffffffffffffffffffffff16815260200180602001828103825283818151815260200191508051906020019080838360005b838110156102ea5780820151818401526020810190506102cf565b50505050905090810190601f1680156103175780820380516001836020036101000a031916815260200191505b50935050505060405180910390a150565b60008181548110151561033757fe5b906000526020600020906002020160009150905080600001908060010160009054906101000a900473ffffffffffffffffffffffffffffffffffffffff16905082565b8154818355818115116103a7576002028160020283600052602060002091820191016103a6919061042c565b5b505050565b828054600181600116156101000203166002900490600052602060002090601f016020900481019282601f106103ed57805160ff191683800117855561041b565b8280016001018555821561041b579182015b8281111561041a5782518255916020019190600101906103ff565b5b5090506104289190610482565b5090565b61047f91905b8082111561047b576000808201600061044b91906104a7565b6001820160006101000a81549073ffffffffffffffffffffffffffffffffffffffff021916905550600201610432565b5090565b90565b6104a491905b808211156104a0576000816000905550600101610488565b5090565b90565b50805460018160011615610100020316600290046000825580601f106104cd57506104ec565b601f0160209004906000526020600020908101906104eb9190610482565b5b505600a165627a7a7230582049c77e074fd80d2d026acfa44870d0fb0c7db7a1c758381fecd52864007da2010029",
  "source": "pragma solidity ^0.4.18;\n\ncontract CivilDiscourse {\n    struct Statement {\n        string text;\n        address owner;\n    }\n\n    event StatementAdded(address by, string text);\n\n    Statement[] public statements;   \n\n    function AddStatement(string text) public {\n       statements.push(Statement({\n           owner: msg.sender,\n           text: text\n       }));\n       StatementAdded(msg.sender, text);\n    }\n}\n\n",
  "sourcePath": "/Users/dan/Desktop/civil-discourse/blockchain/contracts/CivilDiscourse.sol",
  "compiler": {
    "name": "solc",
    "version": "0.4.19+commit.c4cbbb05.Emscripten.clang"
  },
  "schemaVersion": "1.0.1",
  "updatedAt": "2018-02-17T20:15:22.046Z"
}