{
  "contractName": "CivilDiscourse",
  "abi": [
    {
      "constant": true,
      "inputs": [
        {
          "name": "",
          "type": "uint256"
        }
      ],
      "name": "statements",
      "outputs": [
        {
          "name": "text",
          "type": "string"
        },
        {
          "name": "owner",
          "type": "address"
        }
      ],
      "payable": false,
      "stateMutability": "view",
      "type": "function"
    },
    {
      "constant": false,
      "inputs": [
        {
          "name": "text",
          "type": "string"
        }
      ],
      "name": "AddStatement",
      "outputs": [],
      "payable": false,
      "stateMutability": "nonpayable",
      "type": "function"
    }
  ],
  "bytecode": "0x6060604052341561000f57600080fd5b61044b8061001e6000396000f30060606040526004361061004c576000357c0100000000000000000000000000000000000000000000000000000000900463ffffffff1680633d7f3fef14610051578063ac3f58a8146100ae575b600080fd5b341561005c57600080fd5b6100ac600480803590602001908201803590602001908080601f0160208091040260200160405190810160405280939291908181526020018383808284378201915050505050509190505061019a565b005b34156100b957600080fd5b6100cf6004808035906020019091905050610258565b60405180806020018373ffffffffffffffffffffffffffffffffffffffff1673ffffffffffffffffffffffffffffffffffffffff16815260200182810382528481815460018160011615610100020316600290048152602001915080546001816001161561010002031660029004801561018a5780601f1061015f5761010080835404028352916020019161018a565b820191906000526020600020905b81548152906001019060200180831161016d57829003601f168201915b5050935050505060405180910390f35b600080548060010182816101ae91906102aa565b9160005260206000209060020201600060408051908101604052808581526020013373ffffffffffffffffffffffffffffffffffffffff168152509091909150600082015181600001908051906020019061020a9291906102dc565b5060208201518160010160006101000a81548173ffffffffffffffffffffffffffffffffffffffff021916908373ffffffffffffffffffffffffffffffffffffffff16021790555050505050565b60008181548110151561026757fe5b906000526020600020906002020160009150905080600001908060010160009054906101000a900473ffffffffffffffffffffffffffffffffffffffff16905082565b8154818355818115116102d7576002028160020283600052602060002091820191016102d6919061035c565b5b505050565b828054600181600116156101000203166002900490600052602060002090601f016020900481019282601f1061031d57805160ff191683800117855561034b565b8280016001018555821561034b579182015b8281111561034a57825182559160200191906001019061032f565b5b50905061035891906103b2565b5090565b6103af91905b808211156103ab576000808201600061037b91906103d7565b6001820160006101000a81549073ffffffffffffffffffffffffffffffffffffffff021916905550600201610362565b5090565b90565b6103d491905b808211156103d05760008160009055506001016103b8565b5090565b90565b50805460018160011615610100020316600290046000825580601f106103fd575061041c565b601f01602090049060005260206000209081019061041b91906103b2565b5b505600a165627a7a72305820fcb4815a9b56bf763e9045ad523abe6d8af16f99db5e26a9669e6db655dc181b0029",
  "source": "pragma solidity ^0.4.18;\n\ncontract CivilDiscourse {\n    struct Statement {\n        string text;\n        address owner;\n    }\n\n    Statement[] public statements;   \n\n    function AddStatement(string text) public {\n       statements.push(Statement({\n           owner: msg.sender,\n           text: text\n       }));\n    }\n}\n\n",
  "sourcePath": "/Users/jonathanhemnes/git/civil-discourse/blockchain/contracts/CivilDiscourse.sol",
  "compiler": {
    "name": "solc",
    "version": "0.4.19+commit.c4cbbb05.Emscripten.clang"
  },
  "schemaVersion": "1.0.1",
  "updatedAt": "2018-02-17T20:02:01.911Z"
}