{
  "contractName": "CivilDiscourse",
  "abi": [
    {
      "constant": true,
      "inputs": [
        {
          "name": "",
          "type": "uint256"
        }
      ],
      "name": "statements",
      "outputs": [
        {
          "name": "text",
          "type": "string"
        },
        {
          "name": "owner",
          "type": "address"
        }
      ],
      "payable": false,
      "stateMutability": "view",
      "type": "function"
    },
    {
      "anonymous": false,
      "inputs": [
        {
          "indexed": false,
          "name": "by",
          "type": "address"
        },
        {
          "indexed": false,
          "name": "text",
          "type": "string"
        }
      ],
      "name": "StatementAdded",
      "type": "event"
    },
    {
      "constant": false,
      "inputs": [
        {
          "name": "text",
          "type": "string"
        }
      ],
      "name": "AddStatement",
      "outputs": [],
      "payable": false,
      "stateMutability": "nonpayable",
      "type": "function"
    },
    {
      "constant": true,
      "inputs": [],
      "name": "GetStatements",
      "outputs": [
        {
          "components": [
            {
              "name": "text",
              "type": "string"
            },
            {
              "name": "owner",
              "type": "address"
            }
          ],
          "name": "",
          "type": "tuple[]"
        }
      ],
      "payable": false,
      "stateMutability": "view",
      "type": "function"
    }
  ],
  "bytecode": "0x6060604052341561000f57600080fd5b6106fc8061001e6000396000f300606060405260043610610057576000357c0100000000000000000000000000000000000000000000000000000000900463ffffffff1680633d7f3fef1461005c578063ac3f58a8146100b9578063e7227170146101a5575b600080fd5b341561006757600080fd5b6100b7600480803590602001908201803590602001908080601f0160208091040260200160405190810160405280939291908181526020018383808284378201915050505050509190505061020a565b005b34156100c457600080fd5b6100da6004808035906020019091905050610398565b60405180806020018373ffffffffffffffffffffffffffffffffffffffff1673ffffffffffffffffffffffffffffffffffffffff1681526020018281038252848181546001816001161561010002031660029004815260200191508054600181600116156101000203166002900480156101955780601f1061016a57610100808354040283529160200191610195565b820191906000526020600020905b81548152906001019060200180831161017857829003601f168201915b5050935050505060405180910390f35b34156101b057600080fd5b6101b86103ea565b60405180806020018281038252838181518152602001915080516000925b818410156101f957828490602001906020020151815260200192600101926101d6565b925050509250505060405180910390f35b6000805480600101828161021e9190610547565b9160005260206000209060020201600060408051908101604052808581526020013373ffffffffffffffffffffffffffffffffffffffff168152509091909150600082015181600001908051906020019061027a929190610579565b5060208201518160010160006101000a81548173ffffffffffffffffffffffffffffffffffffffff021916908373ffffffffffffffffffffffffffffffffffffffff1602179055505050507f2cf6827452e40312742663eb6721abed4bfd170aaf5804d833f19884d78efef83382604051808373ffffffffffffffffffffffffffffffffffffffff1673ffffffffffffffffffffffffffffffffffffffff16815260200180602001828103825283818151815260200191508051906020019080838360005b8381101561035a57808201518184015260208101905061033f565b50505050905090810190601f1680156103875780820380516001836020036101000a031916815260200191505b50935050505060405180910390a150565b6000818154811015156103a757fe5b906000526020600020906002020160009150905080600001908060010160009054906101000a900473ffffffffffffffffffffffffffffffffffffffff16905082565b6103f26105f9565b6000805480602002602001604051908101604052809291908181526020016000905b8282101561053e5783829060005260206000209060020201604080519081016040529081600082018054600181600116156101000203166002900480601f0160208091040260200160405190810160405280929190818152602001828054600181600116156101000203166002900480156104d05780601f106104a5576101008083540402835291602001916104d0565b820191906000526020600020905b8154815290600101906020018083116104b357829003601f168201915b505050505081526020016001820160009054906101000a900473ffffffffffffffffffffffffffffffffffffffff1673ffffffffffffffffffffffffffffffffffffffff1673ffffffffffffffffffffffffffffffffffffffff168152505081526020019060010190610414565b50505050905090565b81548183558181151161057457600202816002028360005260206000209182019101610573919061060d565b5b505050565b828054600181600116156101000203166002900490600052602060002090601f016020900481019282601f106105ba57805160ff19168380011785556105e8565b828001600101855582156105e8579182015b828111156105e75782518255916020019190600101906105cc565b5b5090506105f59190610663565b5090565b602060405190810160405280600081525090565b61066091905b8082111561065c576000808201600061062c9190610688565b6001820160006101000a81549073ffffffffffffffffffffffffffffffffffffffff021916905550600201610613565b5090565b90565b61068591905b80821115610681576000816000905550600101610669565b5090565b90565b50805460018160011615610100020316600290046000825580601f106106ae57506106cd565b601f0160209004906000526020600020908101906106cc9190610663565b5b505600a165627a7a72305820499c4dfa9979ae949a4953c16512002c0665c8b3e37cd78b5eb681e11f35794b0029",
  "source": "pragma solidity ^0.4.18;\n\ncontract CivilDiscourse {\n    struct Statement {\n        string text;\n        address owner;\n    }\n\n    event StatementAdded(address by, string text);\n\n    Statement[] public statements;   \n\n    function AddStatement(string text) public {\n       statements.push(Statement({\n           owner: msg.sender,\n           text: text\n       }));\n       StatementAdded(msg.sender, text);\n    }\n\n    function GetStatements() public view returns (Statement[]) {\n        return statements;\n    }\n}\n\n",
  "sourcePath": "/Users/dan/Desktop/civil-discourse/blockchain/contracts/CivilDiscourse.sol",
  "compiler": {
    "name": "solc",
    "version": "0.4.19+commit.c4cbbb05.Emscripten.clang"
  },
  "schemaVersion": "1.0.1",
  "updatedAt": "2018-02-17T22:12:15.260Z"
}